{
  "contractName": "Voting",
  "abi": [
    {
      "anonymous": false,
      "inputs": [
        {
          "indexed": true,
          "internalType": "address",
          "name": "previousOwner",
          "type": "address"
        },
        {
          "indexed": true,
          "internalType": "address",
          "name": "newOwner",
          "type": "address"
        }
      ],
      "name": "OwnershipTransferred",
      "type": "event"
    },
    {
      "anonymous": false,
      "inputs": [
        {
          "indexed": false,
          "internalType": "uint256",
          "name": "proposalId",
          "type": "uint256"
        }
      ],
      "name": "ProposalRegistered",
      "type": "event"
    },
    {
      "anonymous": false,
      "inputs": [
        {
          "indexed": false,
          "internalType": "address",
          "name": "voter",
          "type": "address"
        },
        {
          "indexed": false,
          "internalType": "uint256",
          "name": "proposalId",
          "type": "uint256"
        }
      ],
      "name": "Voted",
      "type": "event"
    },
    {
      "anonymous": false,
      "inputs": [
        {
          "indexed": false,
          "internalType": "address",
          "name": "voterAddress",
          "type": "address"
        }
      ],
      "name": "VoterRegistered",
      "type": "event"
    },
    {
      "anonymous": false,
      "inputs": [
        {
          "indexed": false,
          "internalType": "enum Voting.WorkflowStatus",
          "name": "previousStatus",
          "type": "uint8"
        },
        {
          "indexed": false,
          "internalType": "enum Voting.WorkflowStatus",
          "name": "newStatus",
          "type": "uint8"
        }
      ],
      "name": "WorkflowStatusChange",
      "type": "event"
    },
    {
      "inputs": [],
      "name": "owner",
      "outputs": [
        {
          "internalType": "address",
          "name": "",
          "type": "address"
        }
      ],
      "stateMutability": "view",
      "type": "function",
      "constant": true
    },
    {
      "inputs": [],
      "name": "renounceOwnership",
      "outputs": [],
      "stateMutability": "nonpayable",
      "type": "function"
    },
    {
      "inputs": [
        {
          "internalType": "address",
          "name": "newOwner",
          "type": "address"
        }
      ],
      "name": "transferOwnership",
      "outputs": [],
      "stateMutability": "nonpayable",
      "type": "function"
    },
    {
      "inputs": [],
      "name": "winningProposalID",
      "outputs": [
        {
          "internalType": "uint256",
          "name": "",
          "type": "uint256"
        }
      ],
      "stateMutability": "view",
      "type": "function",
      "constant": true
    },
    {
      "inputs": [],
      "name": "workflowStatus",
      "outputs": [
        {
          "internalType": "enum Voting.WorkflowStatus",
          "name": "",
          "type": "uint8"
        }
      ],
      "stateMutability": "view",
      "type": "function",
      "constant": true
    },
    {
      "inputs": [
        {
          "internalType": "address",
          "name": "_addr",
          "type": "address"
        }
      ],
      "name": "getVoter",
      "outputs": [
        {
          "components": [
            {
              "internalType": "bool",
              "name": "isRegistered",
              "type": "bool"
            },
            {
              "internalType": "bool",
              "name": "hasVoted",
              "type": "bool"
            },
            {
              "internalType": "uint256",
              "name": "votedProposalId",
              "type": "uint256"
            }
          ],
          "internalType": "struct Voting.Voter",
          "name": "",
          "type": "tuple"
        }
      ],
      "stateMutability": "view",
      "type": "function",
      "constant": true
    },
    {
      "inputs": [
        {
          "internalType": "uint256",
          "name": "_id",
          "type": "uint256"
        }
      ],
      "name": "getOneProposal",
      "outputs": [
        {
          "components": [
            {
              "internalType": "string",
              "name": "description",
              "type": "string"
            },
            {
              "internalType": "uint256",
              "name": "voteCount",
              "type": "uint256"
            }
          ],
          "internalType": "struct Voting.Proposal",
          "name": "",
          "type": "tuple"
        }
      ],
      "stateMutability": "view",
      "type": "function",
      "constant": true
    },
    {
      "inputs": [],
      "name": "getProposals",
      "outputs": [
        {
          "components": [
            {
              "internalType": "string",
              "name": "description",
              "type": "string"
            },
            {
              "internalType": "uint256",
              "name": "voteCount",
              "type": "uint256"
            }
          ],
          "internalType": "struct Voting.Proposal[]",
          "name": "",
          "type": "tuple[]"
        }
      ],
      "stateMutability": "view",
      "type": "function",
      "constant": true
    },
    {
      "inputs": [
        {
          "internalType": "address",
          "name": "_addr",
          "type": "address"
        }
      ],
      "name": "addVoter",
      "outputs": [],
      "stateMutability": "nonpayable",
      "type": "function"
    },
    {
      "inputs": [
        {
          "internalType": "string",
          "name": "_desc",
          "type": "string"
        }
      ],
      "name": "addProposal",
      "outputs": [],
      "stateMutability": "nonpayable",
      "type": "function"
    },
    {
      "inputs": [
        {
          "internalType": "uint256",
          "name": "_id",
          "type": "uint256"
        }
      ],
      "name": "setVote",
      "outputs": [],
      "stateMutability": "nonpayable",
      "type": "function"
    },
    {
      "inputs": [],
      "name": "startProposalsRegistering",
      "outputs": [],
      "stateMutability": "nonpayable",
      "type": "function"
    },
    {
      "inputs": [],
      "name": "endProposalsRegistering",
      "outputs": [],
      "stateMutability": "nonpayable",
      "type": "function"
    },
    {
      "inputs": [],
      "name": "startVotingSession",
      "outputs": [],
      "stateMutability": "nonpayable",
      "type": "function"
    },
    {
      "inputs": [],
      "name": "endVotingSession",
      "outputs": [],
      "stateMutability": "nonpayable",
      "type": "function"
    },
    {
      "inputs": [],
      "name": "tallyVotes",
      "outputs": [],
      "stateMutability": "nonpayable",
      "type": "function"
    },
    {
      "inputs": [],
      "name": "newRegistrationSession",
      "outputs": [],
      "stateMutability": "nonpayable",
      "type": "function"
    }
  ],
  "bytecode": "0x60806040523480156200001157600080fd5b5062000032620000266200003860201b60201c565b6200004060201b60201c565b62000104565b600033905090565b60008060009054906101000a900473ffffffffffffffffffffffffffffffffffffffff169050816000806101000a81548173ffffffffffffffffffffffffffffffffffffffff021916908373ffffffffffffffffffffffffffffffffffffffff1602179055508173ffffffffffffffffffffffffffffffffffffffff168173ffffffffffffffffffffffffffffffffffffffff167f8be0079c531659141344cd1fd0a4f28419497f9722a3daafe3b4186f6b6457e060405160405180910390a35050565b612b2f80620001146000396000f3fe608060405234801561001057600080fd5b506004361061010b5760003560e01c8063a2788cce116100a2578063c88af42f11610071578063c88af42f14610222578063d4f50f981461022c578063ee74c6781461025c578063f2fde38b14610266578063f4ab9adf146102825761010b565b8063a2788cce146101c0578063a7bfab16146101f0578063bdc01431146101fa578063c7038a4e146102185761010b565b806362564c48116100de57806362564c481461015c578063715018a61461017a5780638da5cb5b14610184578063a1edffa2146101a25761010b565b8063230796ae146101105780632fdae3c51461012c578063378a21781461014857806348dc11bd14610152575b600080fd5b61012a60048036038101906101259190611b7b565b61029e565b005b61014660048036038101906101419190611cee565b61059a565b005b6101506107dd565b005b61015a6109be565b005b610164610bbe565b6040516101719190611ecd565b60405180910390f35b610182610cb9565b005b61018c610d41565b6040516101999190611f30565b60405180910390f35b6101aa610d6a565b6040516101b79190611fc2565b60405180910390f35b6101da60048036038101906101d59190611b7b565b610d7d565b6040516101e7919061201a565b60405180910390f35b6101f8610ee4565b005b61020261103e565b60405161020f919061204b565b60405180910390f35b610220611044565b005b61022a61119e565b005b61024660048036038101906102419190612092565b6112f7565b604051610253919061211c565b60405180910390f35b61026461141f565b005b610280600480360381019061027b9190612092565b611579565b005b61029c60048036038101906102979190612092565b611670565b005b600460003373ffffffffffffffffffffffffffffffffffffffff1673ffffffffffffffffffffffffffffffffffffffff16815260200190815260200160002060000160009054906101000a900460ff1661032d576040517f08c379a000000000000000000000000000000000000000000000000000000000815260040161032490612194565b60405180910390fd5b6003600581111561034157610340611f4b565b5b600260009054906101000a900460ff16600581111561036357610362611f4b565b5b146103a3576040517f08c379a000000000000000000000000000000000000000000000000000000000815260040161039a90612226565b60405180910390fd5b60011515600460003373ffffffffffffffffffffffffffffffffffffffff1673ffffffffffffffffffffffffffffffffffffffff16815260200190815260200160002060000160019054906101000a900460ff16151503610439576040517f08c379a000000000000000000000000000000000000000000000000000000000815260040161043090612292565b60405180910390fd5b600380549050811115610481576040517f08c379a0000000000000000000000000000000000000000000000000000000008152600401610478906122fe565b60405180910390fd5b80600460003373ffffffffffffffffffffffffffffffffffffffff1673ffffffffffffffffffffffffffffffffffffffff168152602001908152602001600020600101819055506001600460003373ffffffffffffffffffffffffffffffffffffffff1673ffffffffffffffffffffffffffffffffffffffff16815260200190815260200160002060000160016101000a81548160ff021916908315150217905550600381815481106105375761053661231e565b5b906000526020600020906002020160010160008154809291906105599061237c565b91905055507f4d99b957a2bc29a30ebd96a7be8e68fe50a3c701db28a91436490b7d53870ca4338260405161058f9291906123c4565b60405180910390a150565b600460003373ffffffffffffffffffffffffffffffffffffffff1673ffffffffffffffffffffffffffffffffffffffff16815260200190815260200160002060000160009054906101000a900460ff16610629576040517f08c379a000000000000000000000000000000000000000000000000000000000815260040161062090612194565b60405180910390fd5b6001600581111561063d5761063c611f4b565b5b600260009054906101000a900460ff16600581111561065f5761065e611f4b565b5b1461069f576040517f08c379a000000000000000000000000000000000000000000000000000000000815260040161069690612439565b60405180910390fd5b6040516020016106ae9061247f565b60405160208183030381529060405280519060200120816040516020016106d591906124d8565b604051602081830303815290604052805190602001200361072b576040517f08c379a00000000000000000000000000000000000000000000000000000000081526004016107229061256c565b60405180910390fd5b6107336119bc565b818160000181905250600381908060018154018082558091505060019003906000526020600020906002020160009091909190915060008201518160000190805190602001906107849291906119d6565b506020820151816001015550507f92e393e9b54e2f801d3ea4beb0c5e71a21cc34a5d34b77d0fb8a3aa1650dc18f60016003805490506107c4919061258c565b6040516107d1919061204b565b60405180910390a15050565b6107e56118f0565b73ffffffffffffffffffffffffffffffffffffffff16610803610d41565b73ffffffffffffffffffffffffffffffffffffffff1614610859576040517f08c379a00000000000000000000000000000000000000000000000000000000081526004016108509061260c565b60405180910390fd5b6004600581111561086d5761086c611f4b565b5b600260009054906101000a900460ff16600581111561088f5761088e611f4b565b5b146108cf576040517f08c379a00000000000000000000000000000000000000000000000000000000081526004016108c69061269e565b60405180910390fd5b600080600090505b60038054905081101561094d57600382815481106108f8576108f761231e565b5b9060005260206000209060020201600101546003828154811061091e5761091d61231e565b5b906000526020600020906002020160010154111561093a578091505b80806109459061237c565b9150506108d7565b50806001819055506005600260006101000a81548160ff0219169083600581111561097b5761097a611f4b565b5b02179055507f0a97a4ee45751e2abf3e4fc8946939630b11b371ea8ae39ccdc3056e98f5cc3f600460056040516109b39291906126be565b60405180910390a150565b6109c66118f0565b73ffffffffffffffffffffffffffffffffffffffff166109e4610d41565b73ffffffffffffffffffffffffffffffffffffffff1614610a3a576040517f08c379a0000000000000000000000000000000000000000000000000000000008152600401610a319061260c565b60405180910390fd5b600580811115610a4d57610a4c611f4b565b5b600260009054906101000a900460ff166005811115610a6f57610a6e611f4b565b5b14610aaf576040517f08c379a0000000000000000000000000000000000000000000000000000000008152600401610aa690612733565b60405180910390fd5b60005b600580549050811015610b82576004600060058381548110610ad757610ad661231e565b5b9060005260206000200160009054906101000a900473ffffffffffffffffffffffffffffffffffffffff1673ffffffffffffffffffffffffffffffffffffffff1673ffffffffffffffffffffffffffffffffffffffff168152602001908152602001600020600080820160006101000a81549060ff02191690556000820160016101000a81549060ff0219169055600182016000905550508080610b7a9061237c565b915050610ab2565b5060036000610b919190611a5c565b6000600260006101000a81548160ff02191690836005811115610bb757610bb6611f4b565b5b0217905550565b60606003805480602002602001604051908101604052809291908181526020016000905b82821015610cb05783829060005260206000209060020201604051806040016040529081600082018054610c1590612782565b80601f0160208091040260200160405190810160405280929190818152602001828054610c4190612782565b8015610c8e5780601f10610c6357610100808354040283529160200191610c8e565b820191906000526020600020905b815481529060010190602001808311610c7157829003601f168201915b5050505050815260200160018201548152505081526020019060010190610be2565b50505050905090565b610cc16118f0565b73ffffffffffffffffffffffffffffffffffffffff16610cdf610d41565b73ffffffffffffffffffffffffffffffffffffffff1614610d35576040517f08c379a0000000000000000000000000000000000000000000000000000000008152600401610d2c9061260c565b60405180910390fd5b610d3f60006118f8565b565b60008060009054906101000a900473ffffffffffffffffffffffffffffffffffffffff16905090565b600260009054906101000a900460ff1681565b610d856119bc565b600460003373ffffffffffffffffffffffffffffffffffffffff1673ffffffffffffffffffffffffffffffffffffffff16815260200190815260200160002060000160009054906101000a900460ff16610e14576040517f08c379a0000000000000000000000000000000000000000000000000000000008152600401610e0b90612194565b60405180910390fd5b60038281548110610e2857610e2761231e565b5b9060005260206000209060020201604051806040016040529081600082018054610e5190612782565b80601f0160208091040260200160405190810160405280929190818152602001828054610e7d90612782565b8015610eca5780601f10610e9f57610100808354040283529160200191610eca565b820191906000526020600020905b815481529060010190602001808311610ead57829003601f168201915b505050505081526020016001820154815250509050919050565b610eec6118f0565b73ffffffffffffffffffffffffffffffffffffffff16610f0a610d41565b73ffffffffffffffffffffffffffffffffffffffff1614610f60576040517f08c379a0000000000000000000000000000000000000000000000000000000008152600401610f579061260c565b60405180910390fd5b60036005811115610f7457610f73611f4b565b5b600260009054906101000a900460ff166005811115610f9657610f95611f4b565b5b14610fd6576040517f08c379a0000000000000000000000000000000000000000000000000000000008152600401610fcd90612226565b60405180910390fd5b6004600260006101000a81548160ff02191690836005811115610ffc57610ffb611f4b565b5b02179055507f0a97a4ee45751e2abf3e4fc8946939630b11b371ea8ae39ccdc3056e98f5cc3f600360046040516110349291906126be565b60405180910390a1565b60015481565b61104c6118f0565b73ffffffffffffffffffffffffffffffffffffffff1661106a610d41565b73ffffffffffffffffffffffffffffffffffffffff16146110c0576040517f08c379a00000000000000000000000000000000000000000000000000000000081526004016110b79061260c565b60405180910390fd5b600060058111156110d4576110d3611f4b565b5b600260009054906101000a900460ff1660058111156110f6576110f5611f4b565b5b14611136576040517f08c379a000000000000000000000000000000000000000000000000000000000815260040161112d90612825565b60405180910390fd5b6001600260006101000a81548160ff0219169083600581111561115c5761115b611f4b565b5b02179055507f0a97a4ee45751e2abf3e4fc8946939630b11b371ea8ae39ccdc3056e98f5cc3f600060016040516111949291906126be565b60405180910390a1565b6111a66118f0565b73ffffffffffffffffffffffffffffffffffffffff166111c4610d41565b73ffffffffffffffffffffffffffffffffffffffff161461121a576040517f08c379a00000000000000000000000000000000000000000000000000000000081526004016112119061260c565b60405180910390fd5b6001600581111561122e5761122d611f4b565b5b600260009054906101000a900460ff1660058111156112505761124f611f4b565b5b14611290576040517f08c379a0000000000000000000000000000000000000000000000000000000008152600401611287906128b7565b60405180910390fd5b60028060006101000a81548160ff021916908360058111156112b5576112b4611f4b565b5b02179055507f0a97a4ee45751e2abf3e4fc8946939630b11b371ea8ae39ccdc3056e98f5cc3f600160026040516112ed9291906126be565b60405180910390a1565b6112ff611a80565b600460003373ffffffffffffffffffffffffffffffffffffffff1673ffffffffffffffffffffffffffffffffffffffff16815260200190815260200160002060000160009054906101000a900460ff1661138e576040517f08c379a000000000000000000000000000000000000000000000000000000000815260040161138590612194565b60405180910390fd5b600460008373ffffffffffffffffffffffffffffffffffffffff1673ffffffffffffffffffffffffffffffffffffffff1681526020019081526020016000206040518060600160405290816000820160009054906101000a900460ff161515151581526020016000820160019054906101000a900460ff161515151581526020016001820154815250509050919050565b6114276118f0565b73ffffffffffffffffffffffffffffffffffffffff16611445610d41565b73ffffffffffffffffffffffffffffffffffffffff161461149b576040517f08c379a00000000000000000000000000000000000000000000000000000000081526004016114929061260c565b60405180910390fd5b600260058111156114af576114ae611f4b565b5b600260009054906101000a900460ff1660058111156114d1576114d0611f4b565b5b14611511576040517f08c379a000000000000000000000000000000000000000000000000000000000815260040161150890612949565b60405180910390fd5b6003600260006101000a81548160ff0219169083600581111561153757611536611f4b565b5b02179055507f0a97a4ee45751e2abf3e4fc8946939630b11b371ea8ae39ccdc3056e98f5cc3f6002600360405161156f9291906126be565b60405180910390a1565b6115816118f0565b73ffffffffffffffffffffffffffffffffffffffff1661159f610d41565b73ffffffffffffffffffffffffffffffffffffffff16146115f5576040517f08c379a00000000000000000000000000000000000000000000000000000000081526004016115ec9061260c565b60405180910390fd5b600073ffffffffffffffffffffffffffffffffffffffff168173ffffffffffffffffffffffffffffffffffffffff1603611664576040517f08c379a000000000000000000000000000000000000000000000000000000000815260040161165b906129db565b60405180910390fd5b61166d816118f8565b50565b6116786118f0565b73ffffffffffffffffffffffffffffffffffffffff16611696610d41565b73ffffffffffffffffffffffffffffffffffffffff16146116ec576040517f08c379a00000000000000000000000000000000000000000000000000000000081526004016116e39061260c565b60405180910390fd5b60006005811115611700576116ff611f4b565b5b600260009054906101000a900460ff16600581111561172257611721611f4b565b5b14611762576040517f08c379a000000000000000000000000000000000000000000000000000000000815260040161175990612a6d565b60405180910390fd5b60011515600460008373ffffffffffffffffffffffffffffffffffffffff1673ffffffffffffffffffffffffffffffffffffffff16815260200190815260200160002060000160009054906101000a900460ff161515036117f8576040517f08c379a00000000000000000000000000000000000000000000000000000000081526004016117ef90612ad9565b60405180910390fd5b6001600460008373ffffffffffffffffffffffffffffffffffffffff1673ffffffffffffffffffffffffffffffffffffffff16815260200190815260200160002060000160006101000a81548160ff0219169083151502179055506005819080600181540180825580915050600190039060005260206000200160009091909190916101000a81548173ffffffffffffffffffffffffffffffffffffffff021916908373ffffffffffffffffffffffffffffffffffffffff1602179055507fb6be2187d059cc2a55fe29e0e503b566e1e0f8c8780096e185429350acffd3dd816040516118e59190611f30565b60405180910390a150565b600033905090565b60008060009054906101000a900473ffffffffffffffffffffffffffffffffffffffff169050816000806101000a81548173ffffffffffffffffffffffffffffffffffffffff021916908373ffffffffffffffffffffffffffffffffffffffff1602179055508173ffffffffffffffffffffffffffffffffffffffff168173ffffffffffffffffffffffffffffffffffffffff167f8be0079c531659141344cd1fd0a4f28419497f9722a3daafe3b4186f6b6457e060405160405180910390a35050565b604051806040016040528060608152602001600081525090565b8280546119e290612782565b90600052602060002090601f016020900481019282611a045760008555611a4b565b82601f10611a1d57805160ff1916838001178555611a4b565b82800160010185558215611a4b579182015b82811115611a4a578251825591602001919060010190611a2f565b5b509050611a589190611aa5565b5090565b5080546000825560020290600052602060002090810190611a7d9190611ac2565b50565b6040518060600160405280600015158152602001600015158152602001600081525090565b5b80821115611abe576000816000905550600101611aa6565b5090565b5b80821115611aed5760008082016000611adc9190611af1565b600182016000905550600201611ac3565b5090565b508054611afd90612782565b6000825580601f10611b0f5750611b2e565b601f016020900490600052602060002090810190611b2d9190611aa5565b5b50565b6000604051905090565b600080fd5b600080fd5b6000819050919050565b611b5881611b45565b8114611b6357600080fd5b50565b600081359050611b7581611b4f565b92915050565b600060208284031215611b9157611b90611b3b565b5b6000611b9f84828501611b66565b91505092915050565b600080fd5b600080fd5b6000601f19601f8301169050919050565b7f4e487b7100000000000000000000000000000000000000000000000000000000600052604160045260246000fd5b611bfb82611bb2565b810181811067ffffffffffffffff82111715611c1a57611c19611bc3565b5b80604052505050565b6000611c2d611b31565b9050611c398282611bf2565b919050565b600067ffffffffffffffff821115611c5957611c58611bc3565b5b611c6282611bb2565b9050602081019050919050565b82818337600083830152505050565b6000611c91611c8c84611c3e565b611c23565b905082815260208101848484011115611cad57611cac611bad565b5b611cb8848285611c6f565b509392505050565b600082601f830112611cd557611cd4611ba8565b5b8135611ce5848260208601611c7e565b91505092915050565b600060208284031215611d0457611d03611b3b565b5b600082013567ffffffffffffffff811115611d2257611d21611b40565b5b611d2e84828501611cc0565b91505092915050565b600081519050919050565b600082825260208201905092915050565b6000819050602082019050919050565b600081519050919050565b600082825260208201905092915050565b60005b83811015611d9d578082015181840152602081019050611d82565b83811115611dac576000848401525b50505050565b6000611dbd82611d63565b611dc78185611d6e565b9350611dd7818560208601611d7f565b611de081611bb2565b840191505092915050565b611df481611b45565b82525050565b60006040830160008301518482036000860152611e178282611db2565b9150506020830151611e2c6020860182611deb565b508091505092915050565b6000611e438383611dfa565b905092915050565b6000602082019050919050565b6000611e6382611d37565b611e6d8185611d42565b935083602082028501611e7f85611d53565b8060005b85811015611ebb5784840389528151611e9c8582611e37565b9450611ea783611e4b565b925060208a01995050600181019050611e83565b50829750879550505050505092915050565b60006020820190508181036000830152611ee78184611e58565b905092915050565b600073ffffffffffffffffffffffffffffffffffffffff82169050919050565b6000611f1a82611eef565b9050919050565b611f2a81611f0f565b82525050565b6000602082019050611f456000830184611f21565b92915050565b7f4e487b7100000000000000000000000000000000000000000000000000000000600052602160045260246000fd5b60068110611f8b57611f8a611f4b565b5b50565b6000819050611f9c82611f7a565b919050565b6000611fac82611f8e565b9050919050565b611fbc81611fa1565b82525050565b6000602082019050611fd76000830184611fb3565b92915050565b60006040830160008301518482036000860152611ffa8282611db2565b915050602083015161200f6020860182611deb565b508091505092915050565b600060208201905081810360008301526120348184611fdd565b905092915050565b61204581611b45565b82525050565b6000602082019050612060600083018461203c565b92915050565b61206f81611f0f565b811461207a57600080fd5b50565b60008135905061208c81612066565b92915050565b6000602082840312156120a8576120a7611b3b565b5b60006120b68482850161207d565b91505092915050565b60008115159050919050565b6120d4816120bf565b82525050565b6060820160008201516120f060008501826120cb565b50602082015161210360208501826120cb565b5060408201516121166040850182611deb565b50505050565b600060608201905061213160008301846120da565b92915050565b600082825260208201905092915050565b7f596f75277265206e6f74206120766f7465720000000000000000000000000000600082015250565b600061217e601283612137565b915061218982612148565b602082019050919050565b600060208201905081810360008301526121ad81612171565b9050919050565b7f566f74696e672073657373696f6e20686176656e74207374617274656420796560008201527f7400000000000000000000000000000000000000000000000000000000000000602082015250565b6000612210602183612137565b915061221b826121b4565b604082019050919050565b6000602082019050818103600083015261223f81612203565b9050919050565b7f596f75206861766520616c726561647920766f74656400000000000000000000600082015250565b600061227c601683612137565b915061228782612246565b602082019050919050565b600060208201905081810360008301526122ab8161226f565b9050919050565b7f50726f706f73616c206e6f7420666f756e640000000000000000000000000000600082015250565b60006122e8601283612137565b91506122f3826122b2565b602082019050919050565b60006020820190508181036000830152612317816122db565b9050919050565b7f4e487b7100000000000000000000000000000000000000000000000000000000600052603260045260246000fd5b7f4e487b7100000000000000000000000000000000000000000000000000000000600052601160045260246000fd5b600061238782611b45565b91507fffffffffffffffffffffffffffffffffffffffffffffffffffffffffffffffff82036123b9576123b861234d565b5b600182019050919050565b60006040820190506123d96000830185611f21565b6123e6602083018461203c565b9392505050565b7f50726f706f73616c7320617265206e6f7420616c6c6f77656420796574000000600082015250565b6000612423601d83612137565b915061242e826123ed565b602082019050919050565b6000602082019050818103600083015261245281612416565b9050919050565b50565b6000612469600083612137565b915061247482612459565b600082019050919050565b600060208201905081810360008301526124988161245c565b9050919050565b60006124aa82611d63565b6124b48185612137565b93506124c4818560208601611d7f565b6124cd81611bb2565b840191505092915050565b600060208201905081810360008301526124f2818461249f565b905092915050565b7f566f7573206e6520706f7576657a20706173206e65207269656e2070726f706f60008201527f7365720000000000000000000000000000000000000000000000000000000000602082015250565b6000612556602383612137565b9150612561826124fa565b604082019050919050565b6000602082019050818103600083015261258581612549565b9050919050565b600061259782611b45565b91506125a283611b45565b9250828210156125b5576125b461234d565b5b828203905092915050565b7f4f776e61626c653a2063616c6c6572206973206e6f7420746865206f776e6572600082015250565b60006125f6602083612137565b9150612601826125c0565b602082019050919050565b60006020820190508181036000830152612625816125e9565b9050919050565b7f43757272656e7420737461747573206973206e6f7420766f74696e672073657360008201527f73696f6e20656e64656400000000000000000000000000000000000000000000602082015250565b6000612688602a83612137565b91506126938261262c565b604082019050919050565b600060208201905081810360008301526126b78161267b565b9050919050565b60006040820190506126d36000830185611fb3565b6126e06020830184611fb3565b9392505050565b7f566f74696e672073657373696f6e20686173206e6f7420656e64656400000000600082015250565b600061271d601c83612137565b9150612728826126e7565b602082019050919050565b6000602082019050818103600083015261274c81612710565b9050919050565b7f4e487b7100000000000000000000000000000000000000000000000000000000600052602260045260246000fd5b6000600282049050600182168061279a57607f821691505b6020821081036127ad576127ac612753565b5b50919050565b7f5265676973746572696e672070726f706f73616c732063616e7420626520737460008201527f6172746564206e6f770000000000000000000000000000000000000000000000602082015250565b600061280f602983612137565b915061281a826127b3565b604082019050919050565b6000602082019050818103600083015261283e81612802565b9050919050565b7f5265676973746572696e672070726f706f73616c7320686176656e742073746160008201527f7274656420796574000000000000000000000000000000000000000000000000602082015250565b60006128a1602883612137565b91506128ac82612845565b604082019050919050565b600060208201905081810360008301526128d081612894565b9050919050565b7f5265676973746572696e672070726f706f73616c73207068617365206973206e60008201527f6f742066696e6973686564000000000000000000000000000000000000000000602082015250565b6000612933602b83612137565b915061293e826128d7565b604082019050919050565b6000602082019050818103600083015261296281612926565b9050919050565b7f4f776e61626c653a206e6577206f776e657220697320746865207a65726f206160008201527f6464726573730000000000000000000000000000000000000000000000000000602082015250565b60006129c5602683612137565b91506129d082612969565b604082019050919050565b600060208201905081810360008301526129f4816129b8565b9050919050565b7f566f7465727320726567697374726174696f6e206973206e6f74206f70656e2060008201527f7965740000000000000000000000000000000000000000000000000000000000602082015250565b6000612a57602383612137565b9150612a62826129fb565b604082019050919050565b60006020820190508181036000830152612a8681612a4a565b9050919050565b7f416c726561647920726567697374657265640000000000000000000000000000600082015250565b6000612ac3601283612137565b9150612ace82612a8d565b602082019050919050565b60006020820190508181036000830152612af281612ab6565b905091905056fea2646970667358221220bc911d34cc139fef2ef69c9d045cd7995fe7e2ef2351f1617098e736ffa356d464736f6c634300080d0033",
  "immutableReferences": {},
  "source": "// SPDX-License-Identifier: MIT\n\npragma solidity 0.8.13;\nimport \"../node_modules/@openzeppelin/contracts/access/Ownable.sol\";\n\ncontract Voting is Ownable {\n    // arrays for draw, uint for single\n    // uint[] winningProposalsID;\n    // Proposal[] public winningProposals;\n    uint256 public winningProposalID;\n\n    struct Voter {\n        bool isRegistered;\n        bool hasVoted;\n        uint256 votedProposalId;\n    }\n\n    struct Proposal {\n        string description;\n        uint256 voteCount;\n    }\n\n    enum WorkflowStatus {\n        RegisteringVoters,\n        ProposalsRegistrationStarted,\n        ProposalsRegistrationEnded,\n        VotingSessionStarted,\n        VotingSessionEnded,\n        VotesTallied\n    }\n\n    WorkflowStatus public workflowStatus;\n    Proposal[] proposalsArray;\n    mapping(address => Voter) voters;\n    address[] private votersAdresses;\n\n    event VoterRegistered(address voterAddress);\n    event WorkflowStatusChange(\n        WorkflowStatus previousStatus,\n        WorkflowStatus newStatus\n    );\n    event ProposalRegistered(uint256 proposalId);\n    event Voted(address voter, uint256 proposalId);\n\n    modifier onlyVoters() {\n        require(voters[msg.sender].isRegistered, \"You're not a voter\");\n        _;\n    }\n\n    // on peut faire un modifier pour les tats\n\n    // ::::::::::::: GETTERS ::::::::::::: //\n\n    function getVoter(address _addr)\n        external\n        view\n        onlyVoters\n        returns (Voter memory)\n    {\n        return voters[_addr];\n    }\n\n    function getOneProposal(uint256 _id)\n        external\n        view\n        onlyVoters\n        returns (Proposal memory)\n    {\n        return proposalsArray[_id];\n    }\n\n    function getProposals() external view returns (Proposal[] memory) {\n        return proposalsArray;\n    }\n\n    // ::::::::::::: REGISTRATION ::::::::::::: //\n\n    function addVoter(address _addr) external onlyOwner {\n        require(\n            workflowStatus == WorkflowStatus.RegisteringVoters,\n            \"Voters registration is not open yet\"\n        );\n        require(voters[_addr].isRegistered != true, \"Already registered\");\n\n        voters[_addr].isRegistered = true;\n        votersAdresses.push(_addr);\n        emit VoterRegistered(_addr);\n    }\n\n    /* facultatif\n     * function deleteVoter(address _addr) external onlyOwner {\n     *   require(workflowStatus == WorkflowStatus.RegisteringVoters, 'Voters registration is not open yet');\n     *   require(voters[_addr].isRegistered == true, 'Not registered.');\n     *   voters[_addr].isRegistered = false;\n     *  emit VoterRegistered(_addr);\n    }*/\n\n    // ::::::::::::: PROPOSAL ::::::::::::: //\n\n    function addProposal(string memory _desc) external onlyVoters {\n        require(\n            workflowStatus == WorkflowStatus.ProposalsRegistrationStarted,\n            \"Proposals are not allowed yet\"\n        );\n        require(\n            keccak256(abi.encode(_desc)) != keccak256(abi.encode(\"\")),\n            \"Vous ne pouvez pas ne rien proposer\"\n        ); // facultatif\n        // voir que desc est different des autres\n\n        Proposal memory proposal;\n        proposal.description = _desc;\n        proposalsArray.push(proposal);\n        emit ProposalRegistered(proposalsArray.length - 1);\n    }\n\n    // ::::::::::::: VOTE ::::::::::::: //\n\n    function setVote(uint256 _id) external onlyVoters {\n        require(\n            workflowStatus == WorkflowStatus.VotingSessionStarted,\n            \"Voting session havent started yet\"\n        );\n        require(voters[msg.sender].hasVoted != true, \"You have already voted\");\n        require(_id <= proposalsArray.length, \"Proposal not found\"); // pas oblig, et pas besoin du >0 car uint\n\n        voters[msg.sender].votedProposalId = _id;\n        voters[msg.sender].hasVoted = true;\n        proposalsArray[_id].voteCount++;\n\n        emit Voted(msg.sender, _id);\n    }\n\n    // ::::::::::::: STATE ::::::::::::: //\n\n    /* on pourrait factoriser tout a: par exemple:\n     *\n     *  modifier checkWorkflowStatus(uint  _num) {\n     *    require (workflowStatus=WorkflowStatus(uint(_num)-1, \"bad workflowstatus\");\n     *    require (num != 5, \"il faut lancer tally votes\");\n     *    _;\n     *  }\n     *\n     *  function setWorkflowStatus(WorkflowStatus _num) public checkWorkflowStatus( _num) onlyOwner {\n     *    WorkflowStatus old = workflowStatus;\n     *    workflowStatus = WorkflowStatus(_num);\n     *    emit WorkflowStatusChange(old, workflowStatus);\n     *   }\n     *\n     *  ou plus simplement:\n     *  function nextWorkflowStatus() onlyOwner{\n     *    require (uint(workflowStatus)!=4, \"il faut lancer tallyvotes\");\n     *    WorkflowStatus old = workflowStatus;\n     *    workflowStatus= WorkflowStatus(uint (workflowstatus) + 1);\n     *    emit WorkflowStatusChange(old, workflowStatus);\n     *  }\n     *\n     */\n\n    function startProposalsRegistering() external onlyOwner {\n        require(\n            workflowStatus == WorkflowStatus.RegisteringVoters,\n            \"Registering proposals cant be started now\"\n        );\n        workflowStatus = WorkflowStatus.ProposalsRegistrationStarted;\n        emit WorkflowStatusChange(\n            WorkflowStatus.RegisteringVoters,\n            WorkflowStatus.ProposalsRegistrationStarted\n        );\n    }\n\n    function endProposalsRegistering() external onlyOwner {\n        require(\n            workflowStatus == WorkflowStatus.ProposalsRegistrationStarted,\n            \"Registering proposals havent started yet\"\n        );\n        workflowStatus = WorkflowStatus.ProposalsRegistrationEnded;\n        emit WorkflowStatusChange(\n            WorkflowStatus.ProposalsRegistrationStarted,\n            WorkflowStatus.ProposalsRegistrationEnded\n        );\n    }\n\n    function startVotingSession() external onlyOwner {\n        require(\n            workflowStatus == WorkflowStatus.ProposalsRegistrationEnded,\n            \"Registering proposals phase is not finished\"\n        );\n        workflowStatus = WorkflowStatus.VotingSessionStarted;\n        emit WorkflowStatusChange(\n            WorkflowStatus.ProposalsRegistrationEnded,\n            WorkflowStatus.VotingSessionStarted\n        );\n    }\n\n    function endVotingSession() external onlyOwner {\n        require(\n            workflowStatus == WorkflowStatus.VotingSessionStarted,\n            \"Voting session havent started yet\"\n        );\n        workflowStatus = WorkflowStatus.VotingSessionEnded;\n        emit WorkflowStatusChange(\n            WorkflowStatus.VotingSessionStarted,\n            WorkflowStatus.VotingSessionEnded\n        );\n    }\n\n    /* function tallyVotesDraw() external onlyOwner {\n       require(workflowStatus == WorkflowStatus.VotingSessionEnded, \"Current status is not voting session ended\");\n        uint highestCount;\n        uint[5]memory winners; // egalite entre 5 personnes max\n        uint nbWinners;\n        for (uint i = 0; i < proposalsArray.length; i++) {\n            if (proposalsArray[i].voteCount == highestCount) {\n                winners[nbWinners]=i;\n                nbWinners++;\n            }\n            if (proposalsArray[i].voteCount > highestCount) {\n                delete winners;\n                winners[0]= i;\n                highestCount = proposalsArray[i].voteCount;\n                nbWinners=1;\n            }\n        }\n        for(uint j=0;j<nbWinners;j++){\n            winningProposalsID.push(winners[j]);\n            winningProposals.push(proposalsArray[winners[j]]);\n        }\n        workflowStatus = WorkflowStatus.VotesTallied;\n        emit WorkflowStatusChange(WorkflowStatus.VotingSessionEnded, WorkflowStatus.VotesTallied);\n    } */\n\n    function tallyVotes() external onlyOwner {\n        require(\n            workflowStatus == WorkflowStatus.VotingSessionEnded,\n            \"Current status is not voting session ended\"\n        );\n        uint256 _winningProposalId;\n        for (uint256 p = 0; p < proposalsArray.length; p++) {\n            if (\n                proposalsArray[p].voteCount >\n                proposalsArray[_winningProposalId].voteCount\n            ) {\n                _winningProposalId = p;\n            }\n        }\n        winningProposalID = _winningProposalId;\n\n        workflowStatus = WorkflowStatus.VotesTallied;\n        emit WorkflowStatusChange(\n            WorkflowStatus.VotingSessionEnded,\n            WorkflowStatus.VotesTallied\n        );\n    }\n\n    function newRegistrationSession() public onlyOwner {\n        require(\n            workflowStatus == WorkflowStatus.VotesTallied,\n            \"Voting session has not ended\"\n        );\n        for (uint256 i; i < votersAdresses.length; i++) {\n            delete voters[votersAdresses[i]];\n        }\n        delete proposalsArray;\n        workflowStatus = WorkflowStatus.RegisteringVoters;\n    }\n}\n",
  "sourcePath": "/Users/Francois/code/Alyra/DApp/TruffleBoxReact/contracts/Voting.sol",
  "compiler": {
    "name": "solc",
    "version": "0.8.13+commit.abaa5c0e.Emscripten.clang"
  },
  "schemaVersion": "3.4.7",
  "updatedAt": "2022-04-25T00:13:31.858Z",
  "networkType": "ethereum",
  "devdoc": {
    "kind": "dev",
    "methods": {
      "owner()": {
        "details": "Returns the address of the current owner."
      },
      "renounceOwnership()": {
        "details": "Leaves the contract without owner. It will not be possible to call `onlyOwner` functions anymore. Can only be called by the current owner. NOTE: Renouncing ownership will leave the contract without an owner, thereby removing any functionality that is only available to the owner."
      },
      "transferOwnership(address)": {
        "details": "Transfers ownership of the contract to a new account (`newOwner`). Can only be called by the current owner."
      }
    },
    "version": 1
  },
  "userdoc": {
    "kind": "user",
    "methods": {},
    "version": 1
  }
}